:100000000C9434000C9451000C9451000C94510049
:100010000C9451000C9451000C9451000C9451001C
:100020000C9451000C9451000C9451000C9451000C
:100030000C9451000C9451000C9451000C945100FC
:100040000C9451000C9451000C9451000C945100EC
:100050000C9451000C9451000C9451000C945100DC
:100060000C9451000C94510011241FBECFEFD8E026
:10007000DEBFCDBF0E944B000C944000F894FFCF30
:10008000EC010E9456000E945500CE010E945700CC
:06009000CE010E945300A6
:0C00960080E284B985B18F7D85B9FFCF71
:0400A2000C940000BA
:0400A6000E943E0076
:0200AA000895B7
:0200AC000895B5
:0200AE000895B3
:00000001FF
