:100000000C9434000C9469000C9469000C94690001
:100010000C9469000C9469000C9469000C946900BC
:100020000C9469000C9469000C9469000C946900AC
:100030000C9469000C9469000C9469000C9469009C
:100040000C9469000C9469000C9469000C9469008C
:100050000C9469000C9469000C9469000C9469007C
:100060000C9469000C94690011241FBECFEFD8E0F6
:10007000DEBFCDBF0E9440000C945E00F894FFCF1D
:1000800080E284B985B18F7D85B985B1806285B9FB
:100090002FEF89E698E1215080409040E1F700C0C1
:1000A000000085B18F7D85B92FEF89E698E1215059
:0C00B00080409040E1F700C00000E7CF66
:1000BC00EC010E946E000E946D00CE010E946F0048
:0600CC00CE010E946B0052
:0400D2000C9400008A
:0400D6000E943E0046
:0200DA00089587
:0200DC00089585
:0200DE00089583
:00000001FF
